{
  "transactions": [
    {
      "hash": "0x84db34ab24c07101a250a29892ebb31b6c31674e3d3ec064e652c785a1595735",
      "transactionType": "CALL",
      "contractName": null,
      "contractAddress": "0x128d76d7b5012d5d86718ea8118e35570e383cf5",
      "function": "mintBrabo(string)",
      "arguments": [
        "ipfs://bafybeig37ioir76s7mg5oobetncojcm3c3hxasyd4rvid4jqhy4gkaheg4/?filename=0-PUG.json"
      ],
      "transaction": {
        "from": "0x6b3089eac400db2fa99d0ca8c73c849de73e4d17",
        "to": "0x128d76d7b5012d5d86718ea8118e35570e383cf5",
        "gas": "0x3d61a",
        "value": "0x0",
        "input": "0xf7c6a14e00000000000000000000000000000000000000000000000000000000000000200000000000000000000000000000000000000000000000000000000000000057697066733a2f2f62616679626569673337696f6972373673376d67356f6f6265746e636f6a636d3363336878617379643472766964346a71687934676b61686567342f3f66696c656e616d653d302d5055472e6a736f6e000000000000000000",
        "nonce": "0x47",
        "chainId": "0xaa36a7"
      },
      "additionalContracts": [],
      "isFixedGasLimit": false
    }
  ],
  "receipts": [
    {
      "status": "0x1",
      "cumulativeGasUsed": "0xc7900b",
      "logs": [
        {
          "address": "0x128d76d7b5012d5d86718ea8118e35570e383cf5",
          "topics": [
            "0xddf252ad1be2c89b69c2b068fc378daa952ba7f163c4a11628f55a4df523b3ef",
            "0x0000000000000000000000000000000000000000000000000000000000000000",
            "0x0000000000000000000000006b3089eac400db2fa99d0ca8c73c849de73e4d17",
            "0x0000000000000000000000000000000000000000000000000000000000000000"
          ],
          "data": "0x",
          "blockHash": "0x7d565981aed6686bee53c351fbb31fb348abd7d148883a0c5ed5995d1a6366e3",
          "blockNumber": "0x7ceb8f",
          "transactionHash": "0x84db34ab24c07101a250a29892ebb31b6c31674e3d3ec064e652c785a1595735",
          "transactionIndex": "0x65",
          "logIndex": "0xd6",
          "removed": false
        }
      ],
      "logsBloom": "0x00000000000000000000000000000000000000000000000000000080000000000000000000000000000000000000000000000000000000000020000000000000000000000000000000000008000000000000000000000000001000000000000000000000020000000000000000000800000000080000000000000010000000000000000000000000000000000000000000000000000000000000000000000000000000000000000000000000000000000000000000000000000000000000000000000002000000020000000000000000000000000000000000000000000020020000000000000000000000000000000000000000000000000000000000000000",
      "type": "0x2",
      "transactionHash": "0x84db34ab24c07101a250a29892ebb31b6c31674e3d3ec064e652c785a1595735",
      "transactionIndex": "0x65",
      "blockHash": "0x7d565981aed6686bee53c351fbb31fb348abd7d148883a0c5ed5995d1a6366e3",
      "blockNumber": "0x7ceb8f",
      "gasUsed": "0x2c707",
      "effectiveGasPrice": "0x71c25c903",
      "from": "0x6b3089eac400db2fa99d0ca8c73c849de73e4d17",
      "to": "0x128d76d7b5012d5d86718ea8118e35570e383cf5",
      "contractAddress": null
    }
  ],
  "libraries": [],
  "pending": [],
  "returns": {},
  "timestamp": 1745508758,
  "chain": 11155111,
  "commit": "8a23293"
}